:020000040800F2
:100000000000022081370008253700082737000844
:10001000293700082B3700082D37000800000000A2
:10002000000000000000000000000000211A00088D
:100030002F37000800000000B11A0008313700080F
:10004000D1370008D1370008D1370008D137000870
:10005000D1370008D1370008D1370008D137000860
:10006000D1370008D1370008D1370008D137000850
:10007000D1370008D1370008D1370008D137000840
:10008000D1370008D1370008D1370008D137000830
:10009000D1370008D1370008D1370008D137000820
:1000A000D1370008D1370008D1370008D137000810
:1000B000D1370008D1370008D1370008D137000800
:1000C000D1370008D1370008D1370008D1370008F0
:1000D000D1370008D1370008D1370008D1370008E0
:1000E000D1370008D1370008D1370008D1370008D0
:1000F000D1370008D1370008D1370008D1370008C0
:10010000D1370008D1370008D1370008D1370008AF
:10011000D1370008D1370008D1370008D13700089F
:10012000D1370008D1370008D1370008D13700088F
:10013000D13700080000000000000000D13700089F
:10014000D1370008D1370008D1370008D13700086F
:10015000D1370008D1370008D1370008D13700085F
:10016000D1370008D1370008D1370008D13700084F
:10017000D1370008D1370008D1370008000000004F
:1001800000000000D137000800000000000000005F
:10019000D13700080000000000000000D13700083F
:1001A000000000000000000000000000D13700083F
:1001B000D1370008D1370008D1370008D1370008FF
:0401C000D13700082B
:1001D00010B5054C237833B9044B13B10448AFF381
:1001E00000800123237010BD1000002000000000DB
:1001F0004438000808B5034B1BB103490348AFF36B
:10020000008008BD000000001400002044380008F1
:1002100053B94AB9002908BF00281CBF4FF0FF316D
:100220004FF0FF3000F07AB9ADF1080C6DE904CE63
:1002300000F006F8DDF804E0DDE9022304B07047C1
:100240002DE9F0478C460D460446089E002B51D1FF
:100250008A4217466DD9B2FA82FEBEF1000F0BD06A
:10026000CEF1200C01FA0EF520FA0CFC02FA0EF782
:100270004CEA050C00FA0EF44FEA174A250CBCFBB9
:10028000FAF81FFA87F90AFB18CC45EA0C4508FB77
:1002900009F3AB420AD9ED1908F1FF3280F023814E
:1002A000AB4240F22081A8F102083D44ED1AA4B20D
:1002B000B5FBFAF00AFB105544EA054400FB09F9C6
:1002C000A14509D9E41900F1FF3380F00A81A14565
:1002D00040F2078102383C44A4EB090440EA08409C
:1002E0000021002E61D024FA0EF4002334607360E4
:1002F000BDE8F0878B4207D9002E54D0002186E854
:1003000021000846BDE8F087B3FA83F1002940F0E8
:100310008E80AB4202D3824200F2FA80841A65EBEF
:1003200003050120AC46002E3FD086E81010BDE842
:10033000F08712B90127B7FBF2F7B7FA87FEBEF1D3
:10034000000F34D1EB1B3A0C1FFA87FC0121B3FBE1
:10035000F2F8250C02FB183345EA03450CFB08F3C1
:10036000AB4207D9ED1908F1FF3002D2AB4200F2DF
:10037000D1808046ED1AA3B2B5FBF2F002FB105516
:1003800043EA05440CFB00FCA44507D9E41900F13D
:10039000FF3302D2A44500F2B8801846A4EB0C0447
:1003A00040EA08409DE731463046BDE8F087CEF18F
:1003B000200405FA0EF307FA0EF720FA04F83A0CB7
:1003C00025FA04F448EA0308B4FBF2F14FEA1845B1
:1003D00002FB11441FFA87FC45EA044501FB0CF3BC
:1003E000AB4200FA0EF409D9ED1901F1FF3080F0AB
:1003F0008A80AB4240F2878002393D44EB1A1FFAF3
:1004000088F5B3FBF2F002FB103345EA034500FB2D
:100410000CF3AB4207D9ED1900F1FF386FD2AB42B4
:100420006DD902383D44EB1A40EA01418FE7C1F132
:10043000200722FA07F88B4005FA01F448EA030383
:1004400020FA07FE4FEA134CFD404EEA040EB5FBBE
:10045000FCF94FEA1E440CFB19551FFA83F844EAD5
:10046000054509FB08F4AC4202FA01F200FA01FA70
:1004700008D9ED1809F1FF3043D2AC4241D9A9F1B6
:1004800002091D442D1B1FFA8EFEB5FBFCF00CFB70
:1004900010554EEA054400FB08F8A04507D9E418BA
:1004A00000F1FF3529D2A04527D902381C4440EA83
:1004B0000940A4EB0804A0FB02894C45C6464D4602
:1004C00015D312D056B1BAEB0E0364EB050404FA4F
:1004D00007F7CB401F43CC40376074600021BDE874
:1004E000F0871846F8E69046E0E6C245EAD2B8EB57
:1004F000020E69EB03050138E4E72846D7E74046DA
:1005000091E78146BEE7014678E702383C4445E77B
:10051000084608E7A8F102083D442BE7704700BFF2
:1005200038B50E4A0E4B054618784FF47A73B3FB74
:10053000F0F31068B0FBF3F000F04CFA044658B941
:100540000F2D09D8024629464FF0FF3000F00EFA71
:10055000044B20461D6038BD012038BD0C00002032
:10056000000000200400002008B50B4B1A6842F47C
:1005700000721A601A6842F480621A601A6842F4C3
:1005800080721A60032000F0DFF90F20FFF7C8FF28
:1005900002F04CFF002008BD003C0240034A044B1F
:1005A00011681B780B441360704700BFF0480020AF
:1005B00000000020014B1868704700BFF048002081
:1005C00038B50446002800F09B80056C25B902F080
:1005D0004FFF656484F83C50236CDB0600F18E808D
:1005E000236C23F4885323F0020343F002032364B3
:1005F000444B5A6822F440325A605A6861680A4390
:100600005A60236821695A6822F480725A605A68D5
:1006100042EA01225A605A68A16822F040725A6088
:100620005A680A435A609A68E16822F400629A6044
:100630009A680A439A603449A26A8A4252D09968F9
:1006400021F07061996099680A439A609A68E16A3A
:1006500022F040529A609A680A439A609A68217E12
:1006600022F002029A609A6842EA41029A6094F883
:100670002020002A3ED05A68616A42F400625A6023
:100680005A6822F460425A605A68013942EA41329B
:100690005A60DA6AE16922F47002DA62DA6A0139D0
:1006A00042EA0152DA629A6894F8301022F4007239
:1006B0009A609A6842EA41229A609A68616922F4D3
:1006C00080629A609A68002042EA81229A6060649F
:1006D000236C23F0030343F001032364002384F815
:1006E0003C3038BD9A6822F070629A609A6822F0B5
:1006F0004052B2E75A6822F40062C9E70120EDE7F0
:10070000012038BD002301400100000FF7B5002390
:10071000019390F83C30012B6ED00D6804688A6814
:100720000123092D80F83C30AEB22AD906EB4603EE
:10073000E7681E3B4FF0070E0EFA03FE27EA0E078E
:10074000E760E76802FA03F33B43E3604A68062A7E
:100750004FEA820325D81344676B591F1F238B4030
:1007600027EA03036363626B06FA01F111436163D5
:10077000324B9C4234D0002380F83C30184603B002
:10078000F0BD276905EB45034FF0070E0EFA03FE97
:1007900027EA0E072761276902FA03F33B43236127
:1007A000D4E70C2A0ED81344216BA3F123021F2394
:1007B000934021EA03032363236B06FA02F21A43F0
:1007C0002263D5E71344E16A413B1F229A4021EAA4
:1007D0000202E262E26A06FA03F11143E162C7E74C
:1007E000122D0BD1164B5A6822F400025A605A6837
:1007F00042F480025A60BEE70220C0E7114B9D42DE
:1008000001D0112DB7D10E4B5A6822F480025A60E4
:100810005A6842F400025A600A4B9D42ABD10A4B1F
:100820000A4A1B68B3FBF2F20A2353430193019B6C
:10083000002BA0D0019B013BF8E700BF0020014046
:1008400000230140120000100C00002040420F0065
:1008500038B5044600286ED090F820300BB902F06D
:1008600061FE2268136823F002031360FFF7A2FE03
:10087000054623685A68910751D41A6842F001026C
:100880001A60FFF797FE054623685A68D20754D5C9
:10089000227E012A1A680CBF42F0800222F08002F8
:1008A0001A60627E012A1A680CBF42F0400222F0F0
:1008B00040021A60A27E012A1A680CBF42F0200290
:1008C00022F020021A60E27E012A1A680CBF22F090
:1008D000100242F010021A60227F012A1A680CBF2F
:1008E00042F0080222F008021A60627F012A1A68A8
:1008F0000CBF42F0040222F004021A60E168A26810
:100900000A4321690A4361690A43616801390A435C
:10091000DA6100200123606284F8203038BDFFF7DF
:1009200049FE401B0A28A4D9636A43F4003363627A
:10093000052384F82030012038BDFFF73BFE401B23
:100940000A28A1D9F0E70000074AD36823F4E0633E
:100950001B041B0C43F0BF63000243F4003300F49C
:10096000E0600343D360704700ED00E0174B30B503
:10097000DC68C4F30224C4F10703251D042B28BF3F
:100980000423062D4FF0010505FA03F303F1FF33AD
:100990008CBF033C00241940A14005FA04F4013C3B
:1009A0002240002842EA01024FEA0212ADBF00F1E4
:1009B000604000F00F00064B00F56140B5BFD2B2B9
:1009C000D2B21A5480F8002330BD00BF00ED00E021
:1009D00014ED00E00138B0F1807F0AD2064B074ADF
:1009E0005860F02182F823100020072298601A60D6
:1009F00070470120704700BF10E000E000ED00E00C
:100A00002DE9F04F85B00B68DFF8A081654ADFF86B
:100A1000A091019300234FF0010E019C0EFA03FEFA
:100A20000EEA0406B64540F0AA804C6824F0100790
:100A3000022F16D14FEAD30A00EB8A0A03F0070B04
:100A4000DAF820504FEA8B0B4FF00F0C0CFA0BFC2E
:100A500025EA0C0C0D6905FA0BF545EA0C05CAF8F8
:100A600020504FEA430A0325D0F800B005FA0AF5F2
:100A7000ED4304F0030C0BEA050B0CFA0AFC013FF2
:100A80004CEA0B0C012FC0F800C011D8876807EAA8
:100A9000050BCF6807FA0AFC4CEA0B07876047682A
:100AA00027EA0E0EC4F300179F4047EA0E0747607F
:100AB000C7683D408F6807FA0AF73D43C560E50007
:100AC0005DD54FF0000BCDF80CB0D8F84470364D22
:100AD00047F48047C8F84470D8F8447007F480475A
:100AE0000397039F23F0030707F1804707F59C371F
:100AF00003F0030CD7F808A04FEA8C0C4FF00F0E50
:100B00000EFA0CFEA8422AEA0E0E3FD005F58065CB
:100B1000A8423DD005F58065A8423BD005F580652B
:100B2000A84239D005F58065A84237D0484537D06E
:100B300005F50065A84214BF0725062505FA0CF542
:100B400045EA0E05BD601568F74314F4803F0CBFFD
:100B50003D4035431560556814F4003F0CBF3D40DF
:100B600035435560956814F4801F0CBF3D403543F4
:100B70009560D568A40254BF3D403543D56001332C
:100B8000102B7FF448AF05B0BDE8F08F5D46D5E788
:100B90000125D3E70225D1E70325CFE70425CDE7DB
:100BA0000525CBE7003C0140000002400038024030
:100BB000001402402DE9F0410D46044610B9012011
:100BC000BDE8F081444B1A6802F00F028A4228D334
:100BD00021688F072DD4C80740D43F4B1A6802F014
:100BE0000F02954266D3226851076CD4130707D5CC
:100BF0003A4A2169936823F4604343EAC10393604E
:100C000000F092F8354B364A9B68C3F30313D35C6C
:100C1000D840344B18600F20FFF782FC0020BDE85D
:100C2000F081CAB21A701B6803F00F039942C6D153
:100C3000CEE72A4B11F0040F1EBF9A6842F4E0522F
:100C40009A600E0742BF9A6842F460429A609A68BE
:100C5000A06822F0F00202439A60BCE762681F4B72
:100C6000012A1DD11B6813F4003FA8D01B4EB368A6
:100C700023F003031343B360FFF79CFC41F2883871
:100C80000746B368626803F00C03B3EB820FA4D08D
:100C9000FFF790FCC01B4045F3D90320BDE8F0816D
:100CA000911E01291B6802D813F0007FDDE713F0C5
:100CB000020FDAE7EAB21A701B6803F00F039D42D5
:100CC0007FF47DAF8FE70549E0688B6823F4E0533C
:100CD00003438B608AE700BF003C024000380240BB
:100CE0007A3800080C000020044B054A9B68C3F3C7
:100CF0008223D35C034A1068D84070470038024012
:100D00008A3800080C000020044B054A9B68C3F396
:100D10004233D35C034A1068D84070470038024021
:100D20008A3800080C000020204908B58B6803F0C1
:100D30000C03082B07D00C2B20D01D4A1D48042B78
:100D400018BF104608BD4A684B68496813F4800311
:100D500014BF18481648C1F3881118BF002302F0C9
:100D60003F02A1FB0001FFF753FA104B5B68C3F38E
:100D7000014301335B00B0FBF3F008BD4A684B68E8
:100D8000496813F4800314BF0A480948C1F3881165
:100D900018BF002302F03F02A1FB0001FFF738FA61
:100DA000024B5B68C3F30273E5E700BF0038024003
:100DB0000024F40040787D0103682DE9F341DF074A
:100DC000044610D423689E0767D423681A0700F1ED
:100DD000B28023685B0700F1D080A269002A40F04E
:100DE000398100201EE0974B9A6802F00C02042A19
:100DF00010D09A6802F00C02082A02D15B685D02EA
:100E000008D4904B9A6802F00C020C2A0DD15A6853
:100E100050020AD58B4B1B689903D3D56368002B0E
:100E2000D0D1012002B0BDE8F0816268B2F5803F08
:100E300011D11A6842F480321A60FFF7BBFB814D72
:100E400006462B689A03BDD4FFF7B4FB801B6428C9
:100E5000F7D90320E6E77B4DB2F5A02F2B6807D129
:100E600043F480232B602B6843F480332B60E4E74A
:100E700023F480332B602B6823F480232B60002A1B
:100E8000DBD1FFF797FB06462B689B039AD5FFF74C
:100E900091FB801B6428F7D9DBE76A4B9A6812F054
:100EA0000C0F10D09A6802F00C02082A02D15B687D
:100EB0005F0208D5634A936803F00C030C2B11D131
:100EC00053685E020ED45F4B1A68950702D5E2683C
:100ED000012AA6D11A68216922F0F80242EAC10269
:100EE0001A6072E7E268584BB2B101221A60FFF74C
:100EF00061FB544D06462B68980707D52B6822697D
:100F000023F0F80343EAC2032B605EE7FFF752FBCE
:100F1000801B0228EFD99CE71A60FFF74BFB494D75
:100F200006462B6899077FF550AFFFF743FB801B00
:100F30000228F6D98DE76269444B7AB101221A6022
:100F4000FFF738FB3F4D06466B6F9F073FF541AFFC
:100F5000FFF730FB801B0228F6D97AE71A60FFF70B
:100F600029FB384D06466B6F98077FF532AFFFF7C8
:100F700021FB801B0228F6D96BE7324B1A6C12F06A
:100F8000805228D101921A6C42F080521A641B6C74
:100F900003F080530193019B01262D4D2B68D90549
:100FA0001BD5A368274D012B27D12B6F43F00103DD
:100FB0002B67FFF7FFFA234D074641F288382B6F66
:100FC0009B0739D5002E3FF408AF1E4A136C23F05F
:100FD0008053136401E70026DFE72B6843F4807336
:100FE0002B60FFF7E7FA07462B68DA05D9D4FFF73D
:100FF000E1FAC01B0228F7D92BE7052B04D12B6F90
:1010000043F004032B67D0E72A6F22F001022A671E
:101010002A6F22F004022A67002BCAD1FFF7CAFA0E
:1010200041F2883807462B6F9807CBD5FFF7C2FAF5
:10103000C01B4045F7D90CE7FFF7BCFAC01B404581
:10104000BDD906E70038024000004742800E474203
:1010500000700040234DAB6803F00C03082B3FF4F5
:10106000E0AE214E0023022A33602DD1FFF7A2FA11
:1010700007462B68990121D4226AE3691343626A07
:1010800043EA8213E26A43EA0263226B43EA027391
:10109000A26A144C5208013A43EA02436B600123EE
:1010A0003360FFF787FA054623689A013FF599AE4A
:1010B000FFF780FA401B0228F6D9CAE6FFF77AFA52
:1010C000C01B0228D5D9C4E6FFF774FA04462B6882
:1010D0009B017FF586AEFFF76DFA001B0228F6D95B
:1010E000B7E600BF0038024060004742036A23F0C1
:1010F00001030362036A70B5446882690D6822F0D7
:1011000073022A438D6823F002032B430E4DA8423D
:1011100002D00E4EB04210D1CE6823F00803334304
:10112000A84223F0040302D0084DA84205D14D691E
:101130008E6924F4407435432C43446082614A68CC
:101140004263036270BD00BF000001400004014023
:10115000036A23F480730362036A70B54468C2694A
:101160000D6822F073022A438D6823F4007343EA6A
:101170000523114DA84203D005F58065A84214D17E
:10118000CD6823F4006343EA05230B4DA84223F402
:10119000806303D005F58065A84206D14D698E694C
:1011A00024F44054354344EA05144460C2614A685B
:1011B000C263036270BD00BF00000140036A23F4F4
:1011C00080530362036A30B54468C2690D6822F433
:1011D000E64242EA05228D6823F4005343EA0533D0
:1011E000084DA84203D005F58065A84204D14D6999
:1011F00024F4804444EA85144460C2614A6802646D
:10120000036230BD00000140304A0368904212D0B2
:10121000B0F1804F0FD0A2F57C4290420BD002F586
:101220008062904207D002F58062904203D002F5BE
:101230007842904219D14A6823F070031343234A3D
:10124000904229D0B0F1804F26D0A2F57C42904246
:1012500022D002F5806290421ED002F58062904258
:101260001AD002F57842904216D0194A904213D013
:1012700002F5806290420FD002F5806290420BD05E
:10128000A2F59832904207D002F58062904203D0D6
:1012900002F58062904203D1CA6823F4407313437D
:1012A0004A6923F08003134303608B68C3620B68B1
:1012B0008362064B984203D003F58063984201D1C4
:1012C0000B69036301234361704700BF00000140C5
:1012D0000040014010B50446A0B190F83D3003F045
:1012E000FF021BB980F83C2002F052F9022384F877
:1012F0003D302068211DFFF787FF012384F83D3032
:10130000002010BD012010BD036A23F0100303620A
:10131000036A70B5446882690D6822F4E64242EAC5
:1013200005228D6823F0200343EA0513104DA842DF
:1013300003D005F58065A84214D1CD6823F0800361
:1013400043EA05130A4DA84223F0400303D005F5F4
:101350008065A84206D14D698E6924F44064354306
:1013600044EA8504446082614A688263036270BD16
:101370000000014038B590F83C30012B04464FF096
:10138000020025D0012384F83C3084F83D000C2A6B
:1013900018D8DFE802F0071717171E1717172F17AF
:1013A000171740002068FFF7A1FE236809699A69B2
:1013B00042F008029A619A6922F004029A619A69DD
:1013C0000A439A610123002084F83D3084F83C00F0
:1013D00038BD2068FFF798FF236809699A6942F4CD
:1013E00000629A619A6922F480629A619A6942EA7B
:1013F0000122E6E72068FFF7ABFE23680969DA6996
:1014000042F00802DA61DA6922F00402DA61DA698C
:101410000A43DA61D6E72068FFF7D0FE236809693E
:10142000DA6942F40062DA61DA6922F48062DA6130
:10143000DA6942EA0122ECE790F83C30012B30B542
:101440004FF0020314D0046880F83D306268A3684E
:101450000D68496822F0700223F080030B432A4391
:101460006260A360012380F83D30002380F83C30A7
:10147000184630BD90F83C30012B1FD0CB688A68ED
:1014800023F4407313434A6823F4806313430A68C8
:1014900023F4006313430A6923F4805313434A6916
:1014A00023F400531343CA6923F4804313430268AF
:1014B0005364002380F83C30184670470220704780
:1014C0002DE9F0470668C2683369C16923F44053C7
:1014D00013433361044683680069F268034360691B
:1014E00022F41642034322F00C020B431343F36031
:1014F0007369A26923F440731343B1F5004F73611C
:101500007A4B7CD19E4203D003F580639E4244D146
:10151000FFF7FAFB192505FB00F360684FF064093B
:101520004000B3FBF0F3B3FBF9F34FEA0318FFF706
:10153000EBFB636868435B00B0FBF3F7FFF7E4FB8A
:10154000636868435B00B0FBF3F3B3FBF9F309FB9B
:101550001373DB003233B3FBF9F35B0003F4F8776A
:10156000FFF7D2FB626868435200B0FBF2FAFFF764
:10157000CBFB636868435B00B0FBF3F3B3FBF9F3A9
:1015800009FB13A3DB003233B3FBF9F303F00703CA
:1015900043443B44B360BDE8F087FFF7A5FB192542
:1015A00005FB00F360684FF064094000B3FBF0F303
:1015B000B3FBF9F34FEA0318FFF796FB6368684340
:1015C0005B00B0FBF3F7FFF78FFB636868435B00DA
:1015D000B0FBF3F3B3FBF9F309FB1373DB00323316
:1015E000B3FBF9F35B0003F4F877FFF77DFB626868
:1015F00068435200B0FBF2FAFFF776FBB9E79E4270
:1016000002D03B4B9E4240D1FFF77EFB6768192515
:101610004FF0640905FB00F3BF00B3FBF7F3B3FB26
:10162000F9F31F01FFF770FB636868439B00B0FB91
:10163000F3F8FFF769FB636868439B00B0FBF3F3C3
:10164000B3FBF9F309FB13831B013233B3FBF9F34B
:1016500003F0F008FFF758FB626868439200B0FBA4
:10166000F2FAFFF751FB636868439B00B0FBF3F3AA
:10167000B3FBF9F309FB13A31B013233B3FBF9F3FB
:1016800003F00F0343EA080383E7FFF72DFB6768C6
:1016900019254FF0640905FB00F3BF00B3FBF7F316
:1016A000B3FBF9F31F01FFF71FFB636868439B005F
:1016B000B0FBF3F8FFF718FB636868439B00B0FBCF
:1016C000F3F3B3FBF9F309FB13831B013233B3FBD1
:1016D000F9F303F0F008FFF707FB62686843920034
:1016E000B0FBF2FAFFF700FBBDE700BF00100140BE
:1016F0000014014010B5044640B390F8393003F0AF
:10170000FF021BB980F8382001F0D4FF226824239F
:1017100084F83930D36823F40053D3602046FFF7B0
:10172000CFFE23681A6922F490421A615A6922F0A6
:101730002A025A61DA6842F40052DA60002020235B
:10174000E06384F8393084F83A3010BD012010BDD0
:10175000EFF3058313B16FF005007047EFF31083CB
:10176000002BF8D1074B1868022806D1EFF311833C
:10177000002BF0D14FF0FF3070470028FAD1012242
:101780001A6070478002002010B5EFF3058313B193
:101790006FF0050010BDEFF31084002CF8D1094B59
:1017A0001A68022A06D1EFF31183002BF0D14FF013
:1017B000FF3010BD012AFAD102221A6001F024F88C
:1017C000204610BD80020020F0B587B014460022EC
:1017D0000B460592EFF3058272BBEFF310825ABB02
:1017E000284A1268022A02D1EFF3118222BB18B3F1
:1017F00000228DF81320002C3CD0216809B90DF18E
:101800001301A569002D08BF18256A1E372A2F4627
:1018100035D86268D20732D4666986B1B208D4F886
:1018200008E0D4F80CC0BEF1000F0AD0BCF1530F91
:1018300002D9246904B1AEB9059807B0F0BD802281
:10184000EDE7BCF1000FF7D12469002CF4D105AC11
:101850000194009792B200F0AAFF01281CBF002358
:101860000593E9E7CDF808E00194009500F068FFE2
:101870000590E1E7182780220DF11301E7E700202A
:10188000DBE700BF8002002008B5EFF3058313B14A
:101890006FF0050008BDEFF31083002BF8D1064B65
:1018A0001B68022B03D1EFF31183002BF0D110B191
:1018B00001F000F9002008BD80020020034B036006
:1018C000034B0B6080231360704700BF2C02002085
:1018D0002C000020034B0360034B0B604FF480731C
:1018E00013607047840600208402002000F1080382
:1018F00043604FF0FF32C3600361002382600360E6
:10190000704700230361704743684B609A688A60A0
:101910009A685160996003680861013303607047F9
:101920000A68531C30B50AD103695A684A6091604D
:101930008B605960036808610133036030BD00F1BA
:1019400008035C682568AA42EFD32346F9E741689B
:10195000826803698A60826851605968884208BF5A
:101960005A60002202611A68013A1A6018687047CA
:1019700082B0002301930D4B1B68013308D04FF058
:10198000500383F31188BFF36F8FBFF34F8FFEE7D0
:101990004FF0500383F31188BFF36F8FBFF34F8F66
:1019A000019B002BFCD002B0704700BF0800002054
:1019B00008480068006880F308884FF0000080F352
:1019C000148862B661B6BFF34F8FBFF36F8F00DF2D
:1019D00000BF000008ED00E0DFF80C00016841F4F2
:1019E000700101607047000088ED00E04FF08073E7
:1019F00040F8043C074B40F80C3C21F001016FF02B
:101A0000020340F8081C40F8202C40F8243C4438DD
:101A1000704700BF711900080000000000000000BE
:101A2000074B19680868B0E8F04F80F30988BFF3E6
:101A30006F8F4FF0000080F311887047AFF3008084
:101A4000F84200204FF0500383F31188BFF36F8FEB
:101A5000BFF34F8F0A4A13680133012B13600DD176
:101A6000084B1B6813F0FF0F08D04FF0500383F3AF
:101A70001188BFF36F8FBFF34F8FFEE7704700BF32
:101A80000800002004ED00E0084A136843B94FF055
:101A9000500383F31188BFF36F8FBFF34F8FFEE7BF
:101AA000013B13600BB983F31188704708000020D5
:101AB000EFF30980BFF36F8F154B1A681EF0100FFC
:101AC00008BF20ED108A20E9F04F10602DE90900D1
:101AD0004FF0500080F31188BFF34F8FBFF36F8F2B
:101AE00001F00CF84FF0000080F3118809BC196870
:101AF0000868B0E8F04F1EF0100F08BFB0EC108A75
:101B000080F30988BFF36F8F704700BFAFF3008089
:101B1000F8420020084A0949002313600B60084B73
:101B20004FF47A711B68B3FBF1F30649013B0B607C
:101B300007231360704700BF10E000E018E000E0EA
:101B40000C00002014E000E0394B3A4A13B5196844
:101B5000914208D14FF0500383F31188BFF36F8F88
:101B6000BFF34F8FFEE71A68334B9A4208D14FF00C
:101B7000500383F31188BFF36F8FBFF34F8FFEE7DE
:101B80002E4B1A78D2B20192FF221A701B782C4A7F
:101B9000DBB28DF803309DF8033003F0500313706F
:101BA000284B07221A6000219DF80300000602F16D
:101BB000FF340DD401B11A601A68032A11D04FF016
:101BC000500383F31188BFF36F8FBFF34F8FFEE78E
:101BD0009DF803205200D2B28DF803200121224645
:101BE000E2E7120202F4E0621A60019B134ADBB2E0
:101BF0001370154B1A6842F470021A601A6842F0AA
:101C000070421A60FFF786FF104B00241C60FFF73C
:101C1000E3FE0F4A136843F040431360FFF7C8FE2A
:101C200000F06CFFFFF7A4FE204602B010BD00BF1D
:101C300000ED00E071C20F4170C20F4100E400E00E
:101C4000D8060020DC06002020ED00E0080000207F
:101C500034EF00E0EFF305830F2B0ED9104A9B5CA5
:101C6000104A12789A4208D94FF0500383F3118832
:101C7000BFF36F8FBFF34F8FFEE70B4B0B4A1B6811
:101C8000126803F4E063934208D94FF0500383F3E2
:101C90001188BFF36F8FBFF34F8FFEE7704700BF10
:101CA000F0E300E0D80600200CED00E0DC060020A8
:101CB00010B50F4B1A68824218D35C681919884214
:101CC00001BF4168184609195960446801198A42E0
:101CD00007D1084909688A421FBF5168126809196B
:101CE00041609842026018BF186010BD1346E1E7DA
:101CF000F0420020E00600202DE9F041044600F00B
:101D0000C7FD3E493E4D0B680BBB3E4A56071FBF01
:101D1000D01D20F0070002F570531B1A14BF0246B5
:101D20004FF470531344083B23F00703364E0B6007
:101D300000207060326058601860981A1360334B4E
:101D400050601860324B18604FF000432B602F68D2
:101D5000274216D1002C41D004F1080358071CBFBC
:101D600023F00703083363B1294A1668B34290464B
:101D700007D8254A15686868834204D809688D42E7
:101D800007D100242AE02C68002CF7D02A462546EB
:101D9000F1E7296814681160C21A102A0FD9E818EF
:101DA000410708D04FF0500383F31188BFF36F8FC2
:101DB000BFF34F8FFEE742606B60FFF779FF134977
:101DC0006B680868F61A1F4386424FF00003C8F894
:101DD000006038BF0E6008346F602B6000F0F6FDC5
:101DE000630708D04FF0500383F31188BFF36F8F60
:101DF000BFF34F8FFEE72046BDE8F081E0060020EC
:101E0000E4420020E4060020F0420020EC420020E2
:101E1000E842002010B5044670B3184A50F8043C5C
:101E20001268134208D14FF0500383F31188BFF3B7
:101E30006F8FBFF34F8FFEE750F8081C41B14FF092
:101E4000500383F31188BFF36F8FBFF34F8FFEE70B
:101E500023EA020340F8043C00F01AFD084A54F853
:101E6000043C1168A4F108000B441360FFF720FF45
:101E7000BDE8104000F0AABD10BD00BFE442002044
:101E8000E842002010B50446FFF7DCFDA46BFFF725
:101E9000FBFDB4FA84F0400910BD70B51546026C24
:101EA000866B044642B905689DB9406800F038FF6A
:101EB00065600136A66370BD6DB9806801F0AEFC47
:101EC000A368226C13446268A360934201D3236821
:101ED000A3600020EDE7C06801F0A0FC236CE2687D
:101EE00021685B421A448A42E2603EBF62689B18E6
:101EF000E360022DEDD10EB1013EEAE73046D8E7AE
:101F0000034610B41A6C084662B1D9685C68114483
:101F1000A142D96024BF1968D960D9685DF8044B23
:101F200001F07CBC5DF8044B704770B50446FFF7C8
:101F300089FD94F8455004F124066DB2002D14DC9F
:101F4000FF2384F84530FFF79FFDFFF77BFD94F8F2
:101F5000445004F110066DB2002D12DCFF2384F80A
:101F60004430BDE87040FFF78FBD636A002BE7D0B7
:101F7000304600F037FE08B100F0BCFE013D6DB206
:101F8000DCE72369002BE9D0304600F02BFE08B1D6
:101F900000F0B0FE013D6DB2DEE7000038B50D4641
:101FA000044640B94FF0500383F31188BFF36F8F9D
:101FB000BFF34F8FFEE7FFF745FD206CE36B226810
:101FC000A2604343D1181B1A13446160E3600021EF
:101FD000FF23A16384F8443084F8453095B9236920
:101FE00063B104F1100000F0FDFD38B10A4B4FF071
:101FF00080521A60BFF34F8FBFF36F8FFFF744FD1E
:10200000012038BD04F11000FFF770FC04F124003A
:10201000FFF76CFCF2E700BF04ED00E013B51C46CF
:1020200040B94FF0500383F31188BFF36F8FBFF3B4
:102030004F8FFEE743B94FF0500383F31188BFF38E
:102040006F8FBFF34F8FFEE74AB1D9B94FF05003FE
:1020500083F31188BFF36F8FBFF34F8FFEE789B112
:102060004FF0500383F31188BFF36F8FBFF34F8F8F
:10207000FEE74FF0500383F31188BFF36F8FBFF378
:102080004F8FFEE748230193019B482BF1D1012399
:10209000002908BF2246E063216484F846302260AC
:1020A00019462046FFF77AFF204602B010BD000017
:1020B0002DE9FF47894601921F46044640B94FF07B
:1020C000500383F31188BFF36F8FBFF34F8FFEE789
:1020D000002940F08880036C002B00F084804FF0D2
:1020E000500383F31188BFF36F8FBFF34F8FFEE769
:1020F000019E002E00F082804FF0500383F3118880
:10210000BFF36F8FBFF34F8FFEE7019D1DB9FFF740
:10211000BBFC002058E016B902A800F0A3FDFFF7B1
:10212000B3FC00F0B5FBFFF78DFC94F84430FF2BB7
:1021300008BF84F8448094F84530FF2B08BF84F82A
:102140004580FFF7A1FC01A902A800F097FD002837
:1021500043D1FFF777FCA66BE56BFFF795FCAE422A
:1021600035D1019904F1100000F004FD2046FFF77D
:10217000DCFE00F02BFC38B94FF08053CAF8003079
:10218000BFF34F8FBFF36F8F0126FFF75BFCA26B8E
:10219000E36B9A4201D3022FB7D13A464946204613
:1021A000FFF77BFE636A1BB104F1240000F01AFD07
:1021B00038B1194B4FF080521A60BFF34F8FBFF305
:1021C0006F8FFFF761FC012004B0BDE8F087204667
:1021D000FFF7ABFE00F0FAFBD6E72046FFF7A5FEBF
:1021E00000F0F4FB95E7022F02D1E36B012B0AD13B
:1021F00000F086FD00283FF47BAF00264FF000087A
:10220000DFF814A0C1E74FF0500383F31188BFF348
:102210006F8FBFF34F8FFEE704ED00E02DE9F84329
:10222000884691461F46044640B94FF0500383F359
:102230001188BFF36F8FBFF34F8FFEE709BB036CAD
:10224000FBB14FF0500383F31188BFF36F8FBFF3DF
:102250004F8FFEE704F1240000F0C4FC002834D0C6
:10226000B9F1000F31D00120C9F8000086F31188C0
:10227000BDE8F88301356DB284F8455025E00020B3
:10228000F4E7022F02D1E36B012B20D1FFF7E2FC30
:10229000EFF311864FF0500383F31188BFF36F8F74
:1022A000BFF34F8FA26BE36B9A4201D3022FE6D1AB
:1022B00094F845503A466DB241462046FFF7EDFD91
:1022C0006B1CD7D1636A002BC4D10120CEE74FF03D
:1022D000500383F31188BFF36F8FBFF34F8FFEE777
:1022E0002DE9F04385B088460192044640B94FF08D
:1022F000500383F31188BFF36F8FBFF34F8FFEE757
:10230000002940F08680036C002B00F082804FF0A3
:10231000500383F31188BFF36F8FBFF34F8FFEE736
:10232000019E002E7AD04FF0500383F31188BFF343
:102330006F8FBFF34F8FFEE7019D1DB9FFF7A4FB21
:10234000002052E016B902A800F08CFCFFF79CFBBD
:1023500000F09EFAFFF776FB94F84430FF2B08BF9D
:1023600084F8447094F84530FF2B08BF84F845701A
:10237000FFF78AFB01A902A800F080FC00283DD1EC
:102380002046FFF77FFD98B3019904F1240000F087
:10239000F1FB2046FFF7C9FD00F018FB38B94FF0FC
:1023A0008053C9F80030BFF34F8FBFF36F8F012602
:1023B000FFF748FBA56B002DBED041462046013DEE
:1023C000FFF79EFDA563236963B104F1100000F0DF
:1023D00009FC38B1134B4FF080521A60BFF34F8F96
:1023E000BFF36F8FFFF750FB012005B0BDE8F0830E
:1023F0002046FFF79AFD00F0E9FAD8E72046FFF7FC
:1024000094FD00F0E3FA2046FFF73CFD0028CED013
:1024100096E700F075FC002882D000260027DFF840
:102420000490C5E704ED00E030B5074A002352F8F8
:10243000335002EBC3041DB942F83310606030BD65
:102440000133082BF3D130BDF448002070B50446A9
:102450000D461646FFF7F6FA94F84430FF2B04BFFA
:10246000002384F8443094F84530FF2B04BF002348
:1024700084F84530FFF708FBA36B2BB93246294699
:1024800004F1240000F090FB2046BDE87040FFF707
:102490004CBD00002DE9F0410646FFF7D3FA2D4B65
:1024A0002D4C1A682D4F01321A602568002D46D137
:1024B00026601B68012B1DD178191435FFF716FA19
:1024C000B5F58C6FF8D1DFF8C080254D4046FFF799
:1024D0000DFA2846FFF70AFA2248FFF707FA2248C2
:1024E000FFF704FA2148FFF701FA214BC3F80080F7
:1024F000204B1D60204A1368013313601F4AF36AA2
:10250000116814208B4200FB037006F1040188BFA0
:102510001360FFF7F9F9FFF7B7FA194B1B6863B1BE
:102520002368DA6AF36A9A4207D2164B4FF0805258
:102530001A60BFF34F8FBFF36F8FBDE8F081104B70
:102540001B68002BD6D12368DA6AF36A9A4298BFD7
:102550002660CFE764470020F842002004430020B3
:1025600090470020AC470020D8470020C4470020F7
:10257000FC420020004300207447002078470020E0
:10258000C047002004ED00E07C470020064A1368A5
:102590001968064B19B94FF0FF321A60704712687C
:1025A000D268D2685268F8E7FC420020A4470020B5
:1025B0002DE9F0470A9CDDF82480266B02F1804269
:1025C000013A06EB82069A4681464B1E26F0070624
:1025D00004F134020F31587802F8010B13F8010F9F
:1025E00008B18B42F7D1089D372D28BF372500272A
:1025F000E5626564201D84F84370A764FFF781F9E4
:10260000C5F1380504F11800FFF77BF9E764246190
:10261000A561646284F85070524649463046FFF71F
:10262000E5F92060B8F1000F01D0C8F80040BDE81E
:10263000F08710B590F8513004463BB9006BFFF7B6
:10264000E9FB2046BDE81040FFF7E4BB012BF9D0C1
:10265000022B08D04FF0500383F31188BFF36F8F24
:10266000BFF34F8FFEE710BD80B5DFF85C80124FDF
:10267000124C134D236863B9124B1B68012BF8D918
:102680004FF08053C8F80030BFF34F8FBFF36F8F08
:10269000EEE7FFF7D7F9FB68DE68301DFFF757F963
:1026A0002B68013B2B602368013B2360FFF7ECF9AB
:1026B0003046FFF7BEFFDDE7D8470020684700201F
:1026C000644700200443002004ED00E0F8B5164BF9
:1026D000164D1E680446286804300F46FFF737F988
:1026E000631C2B4607D137B1296811480431BDE876
:1026F000F840FFF709B934441A68A642546007D974
:102700000C4A10681968BDE8F8400431FFF708B9B1
:10271000094A106819680431FFF702F9074B1A6873
:10272000944238BF1C60F8BDEC470020F8420020FE
:10273000C447002000430020FC420020A4470020A2
:1027400070B586B00B9D0C9C45B94FF0500383F3D8
:102750001188BFF36F8FBFF34F8FFEE744B94FF07F
:10276000500383F31188BFF36F8FBFF34F8FFEE7E2
:1027700054260496049E542E08D04FF0500383F341
:102780001188BFF36F8FBFF34F8FFEE725630225DC
:1027900084F8515005AD01950A9D02940095FFF70C
:1027A00007FF2046FFF776FE059806B070BD2DE9BD
:1027B000F043074685B09000884616469946FFF7D5
:1027C0009BFA0546E8B15420FFF796FA0446A8B1F3
:1027D000002380F851300D9B056301930C9B029000
:1027E000009332464B4641463846FFF7E1FE20460D
:1027F000FFF750FE012005B0BDE8F0832846FFF743
:1028000009FB4FF0FF30F6E710B588B0002407AAA7
:1028100006A905A805940694FFF750F8059B0293B6
:10282000069B019300942346079A14491448FFF726
:1028300087FFA0B908B010BD4FF0500383F3118893
:10284000BFF36F8FBFF34F8F0E4B4FF0FF321A6005
:102850000D4B18600D4B1C60FFF776F9EAE700F0AE
:10286000F3FA0128E8D00130E4D14FF0500383F3AC
:102870001188BFF36F8FBFF34F8FFEE75C380008FE
:1028800069260008A4470020C0470020EC4700202C
:10289000024A136801331360704700BF704700207D
:1028A000014B1868704700BFEC4700202DE9F84F36
:1028B0003B4B1B68002B51D13A4B1C6801341C6008
:1028C000BCB9394B1A68126842B14FF0500383F318
:1028D0001188BFF36F8FBFF34F8FFEE7334A19683C
:1028E000106818601160324A136801331360FFF7F3
:1028F0004DFE304D304F2B689C424FF0000B3CD3C7
:10290000DFF8A480DFF8C090D8F80020126862BB1E
:102910004FF0FF322A6030E006F1040A5046FFF71C
:1029200016F8B16A19B106F11800FFF710F8F06A4D
:10293000D9F80010214B88424FF0140288BFC9F823
:102940000000514602FB0030FEF7DEFF3868F16AF6
:10295000C26A914228BF4FF0010BD5E7184A1368AD
:10296000013313604FF0000B11E0D8F80020D2685B
:10297000D66871688C42CFD229603A680F4BD16A11
:1029800014224A439A58022A28BF4FF0010B0D4ADD
:102990001268002A18BF4FF0010B5846BDE8F88FA7
:1029A00070470020EC470020FC420020004300203C
:1029B000A8470020A4470020F8420020044300203C
:1029C0006C470020F0470020784700202DE9F041B7
:1029D0002F4C236843B94FF0500383F31188BFF3A2
:1029E0006F8FBFF34F8FFEE7FFF72CF82368013B93
:1029F000236024682CB10024FFF746F82046BDE888
:102A0000F081244B1B68002BF5D0234E234FDFF8B9
:102A1000A0803368E3B90CB1FFF7B8FD204D2C68F6
:102A200044B1204E0127FFF741FF00B13760013C60
:102A3000F9D12C601B4B1B68002BDCD01A4B4FF0DC
:102A400080521A60BFF34F8FBFF36F8F0124D3E71B
:102A5000F368DC68251D04F11800FEF778FF2846AE
:102A6000FEF775FFE36A3A681420934200FB038087
:102A7000294688BF3B60FEF747FF0C4BE26A1B68A4
:102A8000DB6A9A4222BF074B01221A60C1E700BFEE
:102A90007047002064470020AC47002078470020A2
:102AA0006C470020F047002004ED00E0F8420020D1
:102AB0000443002008B540B90E4B4FF080521A6015
:102AC000BFF34F8FBFF36F8F08BD0B4B196841B138
:102AD0004FF0500383F31188BFF36F8FBFF34F8F15
:102AE000FEE7FFF7D5FEFFF7F1FDFFF76FFF0028C8
:102AF000E2D008BD04ED00E070470020184B1A68D2
:102B0000184BF0B512B101221A60F0BD164D1A60D3
:102B1000164A2B681427164607FB03F15018545821
:102B20008CB144680831646844600A44944204BF2C
:102B300062684260142202FB03625268D1680C4A48
:102B400011602B60F0BD43B94FF0500383F311883F
:102B5000BFF36F8FBFF34F8FFEE7013BDCE700BF92
:102B600070470020F04700207847002004430020F1
:102B7000F842002010B50C4640B94FF0500383F3E3
:102B80001188BFF36F8FBFF34F8FFEE7054B1968B6
:102B90001831FEF7C5FE20460121BDE81040FFF7C1
:102BA00095BD00BFF842002038B50D46144640B927
:102BB0004FF0500383F31188BFF36F8FBFF34F8F34
:102BC000FEE7074B19681831FEF79EFE002C2146E0
:102BD0000CBF28464FF0FF30BDE83840FFF776BD08
:102BE000F842002038B5C368DC6844B94FF05003A0
:102BF00083F31188BFF36F8FBFF34F8FFEE704F1AC
:102C000018052846FEF7A3FE104B1B68DBB9251DEF
:102C10002846FEF79CFE0E4AE36A11688B4288BF85
:102C200013600C4A1420294600FB0320FEF76CFEBB
:102C3000094BE26A1B68DB6A9A4283BF074B01209B
:102C40001860002038BD29460548EFE7704700208E
:102C50007847002004430020F8420020F04700207D
:102C6000AC470020034B1B680360034B1B684360A9
:102C7000704700BFA8470020EC47002070B50C4605
:102C8000054640B94FF0500383F31188BFF36F8FAF
:102C9000BFF34F8FFEE741B94FF0500383F3118824
:102CA000BFF36F8FBFF34F8FFEE7FEF7CBFE0F4BE7
:102CB00069681A682368581C0ED00D482E68006891
:102CC000864201D08A420ED2521A9A4209D29B1AE7
:102CD00023602846FFF7C6FF0024FEF7D5FE2046F6
:102CE00070BD002323600124F7E700BFEC470020FC
:102CF000A8470020014B01221A607047F0470020CE
:102D0000054B1B6833B1054B1B68002B0CBF022021
:102D10000020704701207047C04700207047002006
:102D200038B5044608B9002038BD1B4B1B689842D3
:102D300008D04FF0500383F31188BFF36F8FBFF3B8
:102D40004F8FFEE7836C43B94FF0500383F3118834
:102D5000BFF36F8FBFF34F8FFEE7C16A426C013B39
:102D600091428364DFD0002BDDD1051D2846FEF79C
:102D7000EEFD636CE362C3F13802A261074A116899
:102D80008B4288BF1360064A142000FB03202946AB
:102D9000FEF7BAFD012038BDF84200207847002038
:102DA00004430020F7B5114CFEF74CFE2568BDB971
:102DB0000F4F104E3846FEF799FD3046FEF796FD50
:102DC0000D4B0E4A1F600E4B0C211E600A20009511
:102DD0000C4BFFF723F9206010B10B49FFF724FBE0
:102DE00003B0BDE8F040FEF74FBE00BFE84800204A
:102DF0007448002088480020F4470020FC47002049
:102E0000F8470020A048002061380008914208B52A
:102E1000416000610AD8D21A83699A420DD2084BE8
:102E2000011D1868FEF77CFD002008BD9A4201D202
:102E3000994202D2011D034BF3E7012008BD00BFF8
:102E4000F8470020F447002010B588B0FFF7AAFF2C
:102E5000134B1B6843B94FF0500383F31188BFF342
:102E60006F8FBFF34F8FFEE7002407AA06A905A8BE
:102E700005940694FEF72EFD059B0293069B019395
:102E800002230093079A074907482346FFF758FC97
:102E9000064B18600028DED0012008B010BD00BF2E
:102EA000E848002066380008852F0008EC4800201C
:102EB00030B5154685B01A46034640B94FF0500369
:102EC00083F31188BFF36F8FBFF34F8FFEE70D4C75
:102ED000206880B105290191029503930DDCFFF76D
:102EE0000FFF0023022808BF089A206818BF1A465F
:102EF00001A9FFF7DDF805B030BD002301A9FFF7F8
:102F00008DF9F8E7E84800202DE9F3411B4D4FF01B
:102F100000082B681A6832B9194A116829601360D1
:102F200002B0BDE8F081DB68DC681E68271D38460A
:102F3000FEF70DFD636A20469847E369012BE8D14F
:102F4000A36933449E4206D26360246139462868EF
:102F5000FEF7E6FCDDE70023CDF800803246194697
:102F60002046FFF7A5FF0028D3D14FF0500383F38D
:102F70001188BFF36F8FBFF34F8FFEE7F447002038
:102F8000F84700202DE9F04F6E4DDFF8C88189B079
:102F90002F462B68D3F800B0BBF1000F43D0DB689D
:102FA000D3F80090FFF774FCFFF77AFC664B1A68C1
:102FB000904282461E4638D20393FFF7A5FF039B3B
:102FC0000124C3F800A0002C40F08280BBF1000F68
:102FD00063D0D1457AD8FFF7F9FC3B68DB68D3F8BA
:102FE0000CB00BF10400FEF7B2FCDBF81C30012B37
:102FF0001DD1DBF818104B46524649445846FFF79E
:1030000005FFA0B1009423464A4621465846FFF7E3
:103010004FFF60B94FF0500383F31188BFF36F8FF8
:10302000BFF34F8FFEE7D946BCE70024C9E7DBF8C2
:10303000243058469847DFF81891D9F8000000224C
:1030400005A9FFF74DF90028A3D0059B002BF4DB61
:10305000079C636913B1201DFEF779FCFFF720FC84
:1030600033689842834601D2FFF74EFF059AC6F8AF
:1030700000B0092AE1D80123934013F4047A4ED119
:1030800013F0C70F27D19B06D7D594F82830002B13
:10309000D3D12046FEF7BEFECFE72C4B1B681A6843
:1030A000B2FA82F252092A4BA9EB0A011868FFF71B
:1030B000CDF9FFF78BFC0028BDD14FF08053C8F845
:1030C0000030BFF34F8FBFF36F8FB4E72246EAE7BC
:1030D000FFF77CFCAFE7A169069B5A4619442046DE
:1030E000FFF794FE0028A8D0636A20469847E3695A
:1030F000012BA2D1A2690699CDF800A00A4453463B
:1031000051462046FFF7D4FE002896D14FF05003D9
:1031100083F31188BFF36F8FBFF34F8FFEE70699DC
:10312000A16141B94FF0500383F31188BFF36F8F52
:10313000BFF34F8FFEE75B465A4659442046FFF7E0
:1031400065FE7AE7F44700209C480020F8470020FD
:10315000E848002004ED00E008B50120FEF794FBEC
:10316000FBE7000010B594B03422002107A800F05E
:1031700060FB0021142202A800F05BFB0024174B27
:1031800000941A6C42F080521A641B6C144A03F0CB
:1031900080530093009B0194136823F4404343F44D
:1031A0008043136013680D9403F440430193019B23
:1031B0000223079301230A9307A810230B93FDF71B
:1031C000FBFD0F23214602A8029303940494059467
:1031D0000694FDF7EFFC14B010BD00BF00380240AC
:1031E0000070004080B596B00024FDF7BDF9FFF7F0
:1031F000B9FF7E4B01941A6B7D4D42F004021A63B5
:103200001A6B02F004020192019A02941A6B42F0C6
:1032100001021A631A6B02F001020292029A0394ED
:103220001A6B42F002021A631B6B102703F00203B1
:103230003A46214603930DA8039B00F0FAFA6D4B22
:10324000AC60012685E8180028466B4BAB62EE6146
:103250006E612C612C7685F82040EC62EC6085F87C
:103260003040FDF7ADF90DA928460E960D940F9448
:10327000FDF74CFA6148624B846080E88800C460C6
:1032800004614461047644768476C4760477447796
:10329000FDF7DEFA1C22214606A85A4D0494059437
:1032A00000F0C7FA202221460DA800F0C2FA564BC2
:1032B000AC60284685E81800EC602C616C61AC615C
:1032C000FEF708F80DEB07012846602604940594E4
:1032D000FEF7B2F8224606A92846069607940894F7
:1032E00009940A940B940C94FEF744F84FF400539D
:1032F0000DA9284612930D940E940F9410941194D6
:103300001494FEF7B7F82846404D00F07BF91C22D4
:1033100021460DA80694079400F08BFA4FF08043E5
:10332000284685E81800AC60EC602C61AC61FDF7C4
:10333000D1FF06A9284606940794FEF77DF8224699
:103340000DA928460D960E940F941194FEF712F8CD
:10335000284600F057F92E4D06941C2221460DA850
:10336000079400F066FA2B4BAC60284685E81800FD
:10337000EC602C61AC61FDF7ADFF06A92846069410
:103380000794FEF759F80DA9224628460D960E948B
:103390000F941194FDF7EEFF284600F033F91E4814
:1033A0001E4A84604FF4E13380E80C000C23436133
:1033B000C46004618461C461FEF79CF9FEF7C8F93A
:1033C000242221460DA800F034FA154B0D938023DA
:1033D00012930DAA1823214612481393FEF7F4F90D
:1033E000114B1860FEF7D0F9FEE700BF003802402D
:1033F00078490020002001400100000F804A002091
:1034000000640040C049002000000140404A002004
:103410003849002000040040004A0020004C0040D1
:103420006E380008593100083449002007B50F4BA9
:1034300000220092596C41F480415964596C01F4A6
:103440008041009100990192196C41F080511964FA
:103450001B6C03F0805301930F216FF00100019B5F
:10346000FDF784FA03B05DF804FB00BF00380240AA
:1034700030B514228BB0044600210DEB020000F0A1
:10348000D8F92268234B9A4241D103F58C330024AA
:1034900001945A6C204842F480725A645A6C02F4C7
:1034A00080720192019A02941A6B42F004021A632C
:1034B0001A6B02F004020292029A03941A6B42F011
:1034C00001021A631A6B02F001020392039A049438
:1034D0001A6B42F002021A631B6B03F0020304939F
:1034E0000325049B06953F2305A90593FDF788FA5C
:1034F000FF2305A90948059306950794FDF780FA6F
:1035000005A90748059506950794FDF779FA0BB0CC
:1035100030BD00BF00200140000802400000024012
:103520000004024010B5044688B01422002103A80C
:1035300000F07FF92268144B9A4223D103F5EA3355
:10354000002101911A6C114842F000721A641A6C41
:1035500002F000720192019A02911A6B42F001028C
:103560001A631B6B03F001030293029B4FF4C053D9
:103570000393022304930323069303A909230793C8
:10358000FDF73EFA08B010BD0064004000000240A4
:103590000368194A934284B00DD100230193174B5D
:1035A0005A6C42F001025A645B6C03F00103019310
:1035B000019B04B07047B3F1804F0CD100230293FC
:1035C0000E4B1A6C42F001021A641B6C03F00103EB
:1035D0000293029BEDE70A4A9342EAD10023039348
:1035E000064B1A6C42F002021A641B6C03F00203D1
:1035F0000393039BDDE700BF000001400038024059
:103600000004004010B5044688B01422002103A82D
:1036100000F00FF92368224A934218D10023009347
:10362000204B1A6B42F001021A631B6B03F001037B
:103630000093009B4FF480730393022304931A4872
:103640000123079303A9FDF7DBF908B010BDB3F11F
:10365000804F0ED100230193124B1A6B42F00102EE
:103660001A631B6B03F001030193019B4FF40043AA
:10367000E2E70E4A9342E8D100230293094B0C483B
:103680001A6B42F004021A631B6B03F004030293EB
:10369000029B4023039302230493079303A9D2E7D9
:1036A00000000140003802400000024000040040D9
:1036B0000008024010B5044688B01422002103A877
:1036C00000F0B7F82268154B9A4225D103F5F6337E
:1036D000002101911A6C124842F400221A641A6CFB
:1036E00002F400220192019A02911A6B42F0040244
:1036F0001A631B6B03F004030293029B4FF44063B5
:10370000039302230493012305930323069303A940
:1037100008230793FDF774F908B010BD004C004072
:10372000000802407047FEE7FEE7FEE7FEE770474D
:10373000FCF734BF0F49D1F8883043F47003C1F867
:1037400088300D4B1A68002042F001021A60986020
:103750001A6822F0847222F480321A60074A5A6092
:103760001A6822F480221A60D8604FF000638B60E0
:10377000704700BF00ED00E0003802401030002428
:10378000DFF834D0002103E00C4B5B584350043188
:103790000B480C4B42189A42F6D30B4A02E0002326
:1037A00042F8043B094B9A42F9D3FFF7C3FF00F0FC
:1037B00011F8FFF717FD704700000220A438000839
:1037C000000000201000002010000020A84A002067
:1037D000FEE7000070B50D4E0D4CA41BA410002593
:1037E000A54209D10B4E0C4C00F02CF8A41BA410E0
:1037F0000025A54205D170BD56F825309847013502
:10380000EEE756F8253098470135F2E79C38000876
:103810009C3800089C380008A038000810B5431EEA
:103820000A44914200D110BD11F8014B03F8014F39
:10383000F7E702440346934200D1704703F8011BA7
:10384000F9E70000F8B500BFF8BC08BC9E46704719
:0C385000F8B500BFF8BC08BC9E467047ED
:10385C0049444C4500546D725100546D722053769E
:10386C00630064656661756C745461736B00000071
:10387C000000000000000102030406070809000014
:08388C0000000102030400002A
:08389400ACC9FF7F0100000038
:04389C00F50100082A
:0438A000D10100084A
:1038A4000100000010000000AAAAAAAA0024F40043
:040000050800378137
:00000001FF
